{
  "_format": "hh-sol-artifact-1",
  "contractName": "Exobot",
  "sourceName": "contracts/Exobot.sol",
  "abi": [
    {
      "inputs": [
        {
          "internalType": "address",
          "name": "_proxyRegistryAddress",
          "type": "address"
        }
      ],
      "stateMutability": "nonpayable",
      "type": "constructor"
    },
    {
      "anonymous": false,
      "inputs": [
        {
          "indexed": true,
          "internalType": "address",
          "name": "owner",
          "type": "address"
        },
        {
          "indexed": true,
          "internalType": "address",
          "name": "approved",
          "type": "address"
        },
        {
          "indexed": true,
          "internalType": "uint256",
          "name": "tokenId",
          "type": "uint256"
        }
      ],
      "name": "Approval",
      "type": "event"
    },
    {
      "anonymous": false,
      "inputs": [
        {
          "indexed": true,
          "internalType": "address",
          "name": "owner",
          "type": "address"
        },
        {
          "indexed": true,
          "internalType": "address",
          "name": "operator",
          "type": "address"
        },
        {
          "indexed": false,
          "internalType": "bool",
          "name": "approved",
          "type": "bool"
        }
      ],
      "name": "ApprovalForAll",
      "type": "event"
    },
    {
      "anonymous": false,
      "inputs": [
        {
          "indexed": false,
          "internalType": "address",
          "name": "userAddress",
          "type": "address"
        },
        {
          "indexed": false,
          "internalType": "address payable",
          "name": "relayerAddress",
          "type": "address"
        },
        {
          "indexed": false,
          "internalType": "bytes",
          "name": "functionSignature",
          "type": "bytes"
        }
      ],
      "name": "MetaTransactionExecuted",
      "type": "event"
    },
    {
      "anonymous": false,
      "inputs": [
        {
          "indexed": true,
          "internalType": "address",
          "name": "previousOwner",
          "type": "address"
        },
        {
          "indexed": true,
          "internalType": "address",
          "name": "newOwner",
          "type": "address"
        }
      ],
      "name": "OwnershipTransferred",
      "type": "event"
    },
    {
      "anonymous": false,
      "inputs": [
        {
          "indexed": true,
          "internalType": "address",
          "name": "from",
          "type": "address"
        },
        {
          "indexed": true,
          "internalType": "address",
          "name": "to",
          "type": "address"
        },
        {
          "indexed": true,
          "internalType": "uint256",
          "name": "tokenId",
          "type": "uint256"
        }
      ],
      "name": "Transfer",
      "type": "event"
    },
    {
      "inputs": [],
      "name": "ERC712_VERSION",
      "outputs": [
        {
          "internalType": "string",
          "name": "",
          "type": "string"
        }
      ],
      "stateMutability": "view",
      "type": "function"
    },
    {
      "inputs": [],
      "name": "MAX_PURCHASE",
      "outputs": [
        {
          "internalType": "uint256",
          "name": "",
          "type": "uint256"
        }
      ],
      "stateMutability": "view",
      "type": "function"
    },
    {
      "inputs": [],
      "name": "MAX_ROBOTS",
      "outputs": [
        {
          "internalType": "uint256",
          "name": "",
          "type": "uint256"
        }
      ],
      "stateMutability": "view",
      "type": "function"
    },
    {
      "inputs": [],
      "name": "MAX_ROBOTS_PER_SEASON",
      "outputs": [
        {
          "internalType": "uint256",
          "name": "",
          "type": "uint256"
        }
      ],
      "stateMutability": "view",
      "type": "function"
    },
    {
      "inputs": [],
      "name": "MAX_SEASON",
      "outputs": [
        {
          "internalType": "uint256",
          "name": "",
          "type": "uint256"
        }
      ],
      "stateMutability": "view",
      "type": "function"
    },
    {
      "inputs": [
        {
          "internalType": "address",
          "name": "to",
          "type": "address"
        },
        {
          "internalType": "uint256",
          "name": "tokenId",
          "type": "uint256"
        }
      ],
      "name": "approve",
      "outputs": [],
      "stateMutability": "nonpayable",
      "type": "function"
    },
    {
      "inputs": [
        {
          "internalType": "address",
          "name": "owner",
          "type": "address"
        }
      ],
      "name": "balanceOf",
      "outputs": [
        {
          "internalType": "uint256",
          "name": "",
          "type": "uint256"
        }
      ],
      "stateMutability": "view",
      "type": "function"
    },
    {
      "inputs": [],
      "name": "baseTokenURI",
      "outputs": [
        {
          "internalType": "string",
          "name": "",
          "type": "string"
        }
      ],
      "stateMutability": "pure",
      "type": "function"
    },
    {
      "inputs": [],
      "name": "contractURI",
      "outputs": [
        {
          "internalType": "string",
          "name": "",
          "type": "string"
        }
      ],
      "stateMutability": "pure",
      "type": "function"
    },
    {
      "inputs": [
        {
          "internalType": "address",
          "name": "userAddress",
          "type": "address"
        },
        {
          "internalType": "bytes",
          "name": "functionSignature",
          "type": "bytes"
        },
        {
          "internalType": "bytes32",
          "name": "sigR",
          "type": "bytes32"
        },
        {
          "internalType": "bytes32",
          "name": "sigS",
          "type": "bytes32"
        },
        {
          "internalType": "uint8",
          "name": "sigV",
          "type": "uint8"
        }
      ],
      "name": "executeMetaTransaction",
      "outputs": [
        {
          "internalType": "bytes",
          "name": "",
          "type": "bytes"
        }
      ],
      "stateMutability": "payable",
      "type": "function"
    },
    {
      "inputs": [
        {
          "internalType": "uint256",
          "name": "tokenId",
          "type": "uint256"
        }
      ],
      "name": "getApproved",
      "outputs": [
        {
          "internalType": "address",
          "name": "",
          "type": "address"
        }
      ],
      "stateMutability": "view",
      "type": "function"
    },
    {
      "inputs": [],
      "name": "getChainId",
      "outputs": [
        {
          "internalType": "uint256",
          "name": "",
          "type": "uint256"
        }
      ],
      "stateMutability": "view",
      "type": "function"
    },
    {
      "inputs": [],
      "name": "getDomainSeperator",
      "outputs": [
        {
          "internalType": "bytes32",
          "name": "",
          "type": "bytes32"
        }
      ],
      "stateMutability": "view",
      "type": "function"
    },
    {
      "inputs": [
        {
          "internalType": "address",
          "name": "user",
          "type": "address"
        }
      ],
      "name": "getNonce",
      "outputs": [
        {
          "internalType": "uint256",
          "name": "nonce",
          "type": "uint256"
        }
      ],
      "stateMutability": "view",
      "type": "function"
    },
    {
      "inputs": [
        {
          "internalType": "address",
          "name": "owner",
          "type": "address"
        },
        {
          "internalType": "address",
          "name": "operator",
          "type": "address"
        }
      ],
      "name": "isApprovedForAll",
      "outputs": [
        {
          "internalType": "bool",
          "name": "",
          "type": "bool"
        }
      ],
      "stateMutability": "view",
      "type": "function"
    },
    {
      "inputs": [
        {
          "internalType": "uint256",
          "name": "numOfTokens",
          "type": "uint256"
        }
      ],
      "name": "mintRobot",
      "outputs": [],
      "stateMutability": "payable",
      "type": "function"
    },
    {
      "inputs": [],
      "name": "name",
      "outputs": [
        {
          "internalType": "string",
          "name": "",
          "type": "string"
        }
      ],
      "stateMutability": "view",
      "type": "function"
    },
    {
      "inputs": [],
      "name": "owner",
      "outputs": [
        {
          "internalType": "address",
          "name": "",
          "type": "address"
        }
      ],
      "stateMutability": "view",
      "type": "function"
    },
    {
      "inputs": [
        {
          "internalType": "uint256",
          "name": "tokenId",
          "type": "uint256"
        }
      ],
      "name": "ownerOf",
      "outputs": [
        {
          "internalType": "address",
          "name": "",
          "type": "address"
        }
      ],
      "stateMutability": "view",
      "type": "function"
    },
    {
      "inputs": [],
      "name": "renounceOwnership",
      "outputs": [],
      "stateMutability": "nonpayable",
      "type": "function"
    },
    {
      "inputs": [],
      "name": "robotPrice",
      "outputs": [
        {
          "internalType": "uint256",
          "name": "",
          "type": "uint256"
        }
      ],
      "stateMutability": "view",
      "type": "function"
    },
    {
      "inputs": [
        {
          "internalType": "address",
          "name": "from",
          "type": "address"
        },
        {
          "internalType": "address",
          "name": "to",
          "type": "address"
        },
        {
          "internalType": "uint256",
          "name": "tokenId",
          "type": "uint256"
        }
      ],
      "name": "safeTransferFrom",
      "outputs": [],
      "stateMutability": "nonpayable",
      "type": "function"
    },
    {
      "inputs": [
        {
          "internalType": "address",
          "name": "from",
          "type": "address"
        },
        {
          "internalType": "address",
          "name": "to",
          "type": "address"
        },
        {
          "internalType": "uint256",
          "name": "tokenId",
          "type": "uint256"
        },
        {
          "internalType": "bytes",
          "name": "_data",
          "type": "bytes"
        }
      ],
      "name": "safeTransferFrom",
      "outputs": [],
      "stateMutability": "nonpayable",
      "type": "function"
    },
    {
      "inputs": [
        {
          "internalType": "address",
          "name": "operator",
          "type": "address"
        },
        {
          "internalType": "bool",
          "name": "approved",
          "type": "bool"
        }
      ],
      "name": "setApprovalForAll",
      "outputs": [],
      "stateMutability": "nonpayable",
      "type": "function"
    },
    {
      "inputs": [
        {
          "internalType": "uint256",
          "name": "newPrice",
          "type": "uint256"
        }
      ],
      "name": "setRobotPrice",
      "outputs": [],
      "stateMutability": "nonpayable",
      "type": "function"
    },
    {
      "inputs": [
        {
          "internalType": "bytes4",
          "name": "interfaceId",
          "type": "bytes4"
        }
      ],
      "name": "supportsInterface",
      "outputs": [
        {
          "internalType": "bool",
          "name": "",
          "type": "bool"
        }
      ],
      "stateMutability": "view",
      "type": "function"
    },
    {
      "inputs": [],
      "name": "symbol",
      "outputs": [
        {
          "internalType": "string",
          "name": "",
          "type": "string"
        }
      ],
      "stateMutability": "view",
      "type": "function"
    },
    {
      "inputs": [
        {
          "internalType": "uint256",
          "name": "index",
          "type": "uint256"
        }
      ],
      "name": "tokenByIndex",
      "outputs": [
        {
          "internalType": "uint256",
          "name": "",
          "type": "uint256"
        }
      ],
      "stateMutability": "view",
      "type": "function"
    },
    {
      "inputs": [
        {
          "internalType": "address",
          "name": "owner",
          "type": "address"
        },
        {
          "internalType": "uint256",
          "name": "index",
          "type": "uint256"
        }
      ],
      "name": "tokenOfOwnerByIndex",
      "outputs": [
        {
          "internalType": "uint256",
          "name": "",
          "type": "uint256"
        }
      ],
      "stateMutability": "view",
      "type": "function"
    },
    {
      "inputs": [
        {
          "internalType": "uint256",
          "name": "_tokenId",
          "type": "uint256"
        }
      ],
      "name": "tokenURI",
      "outputs": [
        {
          "internalType": "string",
          "name": "",
          "type": "string"
        }
      ],
      "stateMutability": "pure",
      "type": "function"
    },
    {
      "inputs": [],
      "name": "totalSupply",
      "outputs": [
        {
          "internalType": "uint256",
          "name": "",
          "type": "uint256"
        }
      ],
      "stateMutability": "view",
      "type": "function"
    },
    {
      "inputs": [
        {
          "internalType": "address",
          "name": "from",
          "type": "address"
        },
        {
          "internalType": "address",
          "name": "to",
          "type": "address"
        },
        {
          "internalType": "uint256",
          "name": "tokenId",
          "type": "uint256"
        }
      ],
      "name": "transferFrom",
      "outputs": [],
      "stateMutability": "nonpayable",
      "type": "function"
    },
    {
      "inputs": [
        {
          "internalType": "address",
          "name": "newOwner",
          "type": "address"
        }
      ],
      "name": "transferOwnership",
      "outputs": [],
      "stateMutability": "nonpayable",
      "type": "function"
    },
    {
      "inputs": [],
      "name": "withdraw",
      "outputs": [],
      "stateMutability": "nonpayable",
      "type": "function"
    }
  ],
  "bytecode": "0x60806040526000600a60006101000a81548160ff021916908315150217905550612710600f5566b1a2bc2ec500006010553480156200003d57600080fd5b5060405162004ed838038062004ed883398181016040528101906200006391906200051c565b6040518060400160405280600b81526020017f526f626f74732d546573740000000000000000000000000000000000000000008152506040518060400160405280600381526020017f52425400000000000000000000000000000000000000000000000000000000008152508282828160009080519060200190620000ea92919062000455565b5080600190805190602001906200010392919062000455565b505050620001266200011a6200018260201b60201c565b6200019e60201b60201c565b80600e60006101000a81548173ffffffffffffffffffffffffffffffffffffffff021916908373ffffffffffffffffffffffffffffffffffffffff16021790555062000178836200026460201b60201c565b5050505062000707565b600062000199620002e660201b6200194c1760201c565b905090565b6000600d60009054906101000a900473ffffffffffffffffffffffffffffffffffffffff16905081600d60006101000a81548173ffffffffffffffffffffffffffffffffffffffff021916908373ffffffffffffffffffffffffffffffffffffffff1602179055508173ffffffffffffffffffffffffffffffffffffffff168173ffffffffffffffffffffffffffffffffffffffff167f8be0079c531659141344cd1fd0a4f28419497f9722a3daafe3b4186f6b6457e060405160405180910390a35050565b600a60009054906101000a900460ff1615620002b7576040517f08c379a0000000000000000000000000000000000000000000000000000000008152600401620002ae90620005ee565b60405180910390fd5b620002c8816200039960201b60201c565b6001600a60006101000a81548160ff02191690831515021790555050565b60003073ffffffffffffffffffffffffffffffffffffffff163373ffffffffffffffffffffffffffffffffffffffff1614156200039257600080368080601f016020809104026020016040519081016040528093929190818152602001838380828437600081840152601f19601f820116905080830192505050505050509050600080369050905073ffffffffffffffffffffffffffffffffffffffff81830151169250505062000396565b3390505b90565b6040518060800160405280604f815260200162004e89604f91398051906020012081805190602001206040518060400160405280600181526020017f31000000000000000000000000000000000000000000000000000000000000008152508051906020012030620004106200044860201b60201c565b60001b6040516020016200042995949392919062000591565b60405160208183030381529060405280519060200120600b8190555050565b6000804690508091505090565b82805462000463906200065f565b90600052602060002090601f016020900481019282620004875760008555620004d3565b82601f10620004a257805160ff1916838001178555620004d3565b82800160010185558215620004d3579182015b82811115620004d2578251825591602001919060010190620004b5565b5b509050620004e29190620004e6565b5090565b5b8082111562000501576000816000905550600101620004e7565b5090565b6000815190506200051681620006ed565b92915050565b6000602082840312156200052f57600080fd5b60006200053f8482850162000505565b91505092915050565b620005538162000621565b82525050565b620005648162000635565b82525050565b600062000579600e8362000610565b91506200058682620006c4565b602082019050919050565b600060a082019050620005a8600083018862000559565b620005b7602083018762000559565b620005c6604083018662000559565b620005d5606083018562000548565b620005e4608083018462000559565b9695505050505050565b6000602082019050818103600083015262000609816200056a565b9050919050565b600082825260208201905092915050565b60006200062e826200063f565b9050919050565b6000819050919050565b600073ffffffffffffffffffffffffffffffffffffffff82169050919050565b600060028204905060018216806200067857607f821691505b602082108114156200068f576200068e62000695565b5b50919050565b7f4e487b7100000000000000000000000000000000000000000000000000000000600052602260045260246000fd5b7f616c726561647920696e69746564000000000000000000000000000000000000600082015250565b620006f88162000621565b81146200070457600080fd5b50565b61477280620007176000396000f3fe6080604052600436106101f95760003560e01c80636352211e1161010d578063b88d4fde116100a0578063da6cf36e1161006f578063da6cf36e1461073e578063e3a5c53b1461075a578063e8a3d48514610785578063e985e9c5146107b0578063f2fde38b146107ed576101f9565b8063b88d4fde14610684578063c569a794146106ad578063c87b56dd146106d6578063d547cfb714610713576101f9565b806376860e6d116100dc57806376860e6d146105da5780638da5cb5b1461060557806395d89b4114610630578063a22cb4651461065b576101f9565b80636352211e1461051e57806370a082311461055b5780637146bd0814610598578063715018a6146105c3576101f9565b8063191c6512116101905780632f745c591161015f5780632f745c59146104395780633408e470146104765780633ccfd60b146104a157806342842e0e146104b85780634f6ccce7146104e1576101f9565b8063191c65121461037d57806320379ee5146103a857806323b872dd146103d35780632d0335ab146103fc576101f9565b80630c53c51c116101cc5780630c53c51c146102cc5780630f7e5970146102fc57806312a02c731461032757806318160ddd14610352576101f9565b806301ffc9a7146101fe57806306fdde031461023b578063081812fc14610266578063095ea7b3146102a3575b600080fd5b34801561020a57600080fd5b50610225600480360381019061022091906130b8565b610816565b604051610232919061373f565b60405180910390f35b34801561024757600080fd5b50610250610890565b60405161025d9190613821565b60405180910390f35b34801561027257600080fd5b5061028d60048036038101906102889190613133565b610922565b60405161029a919061369a565b60405180910390f35b3480156102af57600080fd5b506102ca60048036038101906102c5919061307c565b6109a7565b005b6102e660048036038101906102e19190612fed565b610abf565b6040516102f391906137ff565b60405180910390f35b34801561030857600080fd5b50610311610d31565b60405161031e9190613821565b60405180910390f35b34801561033357600080fd5b5061033c610d6a565b6040516103499190613b23565b60405180910390f35b34801561035e57600080fd5b50610367610d70565b6040516103749190613b23565b60405180910390f35b34801561038957600080fd5b50610392610d7d565b60405161039f9190613b23565b60405180910390f35b3480156103b457600080fd5b506103bd610d82565b6040516103ca919061375a565b60405180910390f35b3480156103df57600080fd5b506103fa60048036038101906103f59190612ee7565b610d8c565b005b34801561040857600080fd5b50610423600480360381019061041e9190612e82565b610dec565b6040516104309190613b23565b60405180910390f35b34801561044557600080fd5b50610460600480360381019061045b919061307c565b610e35565b60405161046d9190613b23565b60405180910390f35b34801561048257600080fd5b5061048b610eda565b6040516104989190613b23565b60405180910390f35b3480156104ad57600080fd5b506104b6610ee7565b005b3480156104c457600080fd5b506104df60048036038101906104da9190612ee7565b610fb2565b005b3480156104ed57600080fd5b5061050860048036038101906105039190613133565b610fd2565b6040516105159190613b23565b60405180910390f35b34801561052a57600080fd5b5061054560048036038101906105409190613133565b611069565b604051610552919061369a565b60405180910390f35b34801561056757600080fd5b50610582600480360381019061057d9190612e82565b61111b565b60405161058f9190613b23565b60405180910390f35b3480156105a457600080fd5b506105ad6111d3565b6040516105ba9190613b23565b60405180910390f35b3480156105cf57600080fd5b506105d86111d8565b005b3480156105e657600080fd5b506105ef611260565b6040516105fc9190613b23565b60405180910390f35b34801561061157600080fd5b5061061a611266565b604051610627919061369a565b60405180910390f35b34801561063c57600080fd5b50610645611290565b6040516106529190613821565b60405180910390f35b34801561066757600080fd5b50610682600480360381019061067d9190612fb1565b611322565b005b34801561069057600080fd5b506106ab60048036038101906106a69190612f36565b6114a3565b005b3480156106b957600080fd5b506106d460048036038101906106cf9190613133565b611505565b005b3480156106e257600080fd5b506106fd60048036038101906106f89190613133565b61158b565b60405161070a9190613821565b60405180910390f35b34801561071f57600080fd5b506107286115c5565b6040516107359190613821565b60405180910390f35b61075860048036038101906107539190613133565b6115e5565b005b34801561076657600080fd5b5061076f611735565b60405161077c9190613b23565b60405180910390f35b34801561079157600080fd5b5061079a61173b565b6040516107a79190613821565b60405180910390f35b3480156107bc57600080fd5b506107d760048036038101906107d29190612eab565b611752565b6040516107e4919061373f565b60405180910390f35b3480156107f957600080fd5b50610814600480360381019061080f9190612e82565b611854565b005b60007f780e9d63000000000000000000000000000000000000000000000000000000007bffffffffffffffffffffffffffffffffffffffffffffffffffffffff1916827bffffffffffffffffffffffffffffffffffffffffffffffffffffffff191614806108895750610888826119fd565b5b9050919050565b60606000805461089f90613de8565b80601f01602080910402602001604051908101604052809291908181526020018280546108cb90613de8565b80156109185780601f106108ed57610100808354040283529160200191610918565b820191906000526020600020905b8154815290600101906020018083116108fb57829003601f168201915b5050505050905090565b600061092d82611adf565b61096c576040517f08c379a000000000000000000000000000000000000000000000000000000000815260040161096390613a43565b60405180910390fd5b6004600083815260200190815260200160002060009054906101000a900473ffffffffffffffffffffffffffffffffffffffff169050919050565b60006109b282611069565b90508073ffffffffffffffffffffffffffffffffffffffff168373ffffffffffffffffffffffffffffffffffffffff161415610a23576040517f08c379a0000000000000000000000000000000000000000000000000000000008152600401610a1a90613ac3565b60405180910390fd5b8073ffffffffffffffffffffffffffffffffffffffff16610a42611b4b565b73ffffffffffffffffffffffffffffffffffffffff161480610a715750610a7081610a6b611b4b565b611752565b5b610ab0576040517f08c379a0000000000000000000000000000000000000000000000000000000008152600401610aa7906139c3565b60405180910390fd5b610aba8383611b5a565b505050565b606060006040518060600160405280600c60008a73ffffffffffffffffffffffffffffffffffffffff1673ffffffffffffffffffffffffffffffffffffffff1681526020019081526020016000205481526020018873ffffffffffffffffffffffffffffffffffffffff168152602001878152509050610b428782878787611c13565b610b81576040517f08c379a0000000000000000000000000000000000000000000000000000000008152600401610b7890613aa3565b60405180910390fd5b610bd46001600c60008a73ffffffffffffffffffffffffffffffffffffffff1673ffffffffffffffffffffffffffffffffffffffff16815260200190815260200160002054611d1c90919063ffffffff16565b600c60008973ffffffffffffffffffffffffffffffffffffffff1673ffffffffffffffffffffffffffffffffffffffff168152602001908152602001600020819055507f5845892132946850460bff5a0083f71031bc5bf9aadcd40f1de79423eac9b10b873388604051610c4a939291906136b5565b60405180910390a16000803073ffffffffffffffffffffffffffffffffffffffff16888a604051602001610c7f929190613617565b604051602081830303815290604052604051610c9b9190613600565b6000604051808303816000865af19150503d8060008114610cd8576040519150601f19603f3d011682016040523d82523d6000602084013e610cdd565b606091505b509150915081610d22576040517f08c379a0000000000000000000000000000000000000000000000000000000008152600401610d19906138a3565b60405180910390fd5b80935050505095945050505050565b6040518060400160405280600181526020017f310000000000000000000000000000000000000000000000000000000000000081525081565b6109c481565b6000600880549050905090565b600481565b6000600b54905090565b610d9d610d97611b4b565b82611d32565b610ddc576040517f08c379a0000000000000000000000000000000000000000000000000000000008152600401610dd390613ae3565b60405180910390fd5b610de7838383611e10565b505050565b6000600c60008373ffffffffffffffffffffffffffffffffffffffff1673ffffffffffffffffffffffffffffffffffffffff168152602001908152602001600020549050919050565b6000610e408361111b565b8210610e81576040517f08c379a0000000000000000000000000000000000000000000000000000000008152600401610e7890613843565b60405180910390fd5b600660008473ffffffffffffffffffffffffffffffffffffffff1673ffffffffffffffffffffffffffffffffffffffff168152602001908152602001600020600083815260200190815260200160002054905092915050565b6000804690508091505090565b610eef611b4b565b73ffffffffffffffffffffffffffffffffffffffff16610f0d611266565b73ffffffffffffffffffffffffffffffffffffffff1614610f63576040517f08c379a0000000000000000000000000000000000000000000000000000000008152600401610f5a90613a63565b60405180910390fd5b60004790503373ffffffffffffffffffffffffffffffffffffffff166108fc829081150290604051600060405180830381858888f19350505050158015610fae573d6000803e3d6000fd5b5050565b610fcd838383604051806020016040528060008152506114a3565b505050565b6000610fdc610d70565b821061101d576040517f08c379a000000000000000000000000000000000000000000000000000000000815260040161101490613b03565b60405180910390fd5b60088281548110611057577f4e487b7100000000000000000000000000000000000000000000000000000000600052603260045260246000fd5b90600052602060002001549050919050565b6000806002600084815260200190815260200160002060009054906101000a900473ffffffffffffffffffffffffffffffffffffffff169050600073ffffffffffffffffffffffffffffffffffffffff168173ffffffffffffffffffffffffffffffffffffffff161415611112576040517f08c379a000000000000000000000000000000000000000000000000000000000815260040161110990613a03565b60405180910390fd5b80915050919050565b60008073ffffffffffffffffffffffffffffffffffffffff168273ffffffffffffffffffffffffffffffffffffffff16141561118c576040517f08c379a0000000000000000000000000000000000000000000000000000000008152600401611183906139e3565b60405180910390fd5b600360008373ffffffffffffffffffffffffffffffffffffffff1673ffffffffffffffffffffffffffffffffffffffff168152602001908152602001600020549050919050565b601481565b6111e0611b4b565b73ffffffffffffffffffffffffffffffffffffffff166111fe611266565b73ffffffffffffffffffffffffffffffffffffffff1614611254576040517f08c379a000000000000000000000000000000000000000000000000000000000815260040161124b90613a63565b60405180910390fd5b61125e600061206c565b565b60105481565b6000600d60009054906101000a900473ffffffffffffffffffffffffffffffffffffffff16905090565b60606001805461129f90613de8565b80601f01602080910402602001604051908101604052809291908181526020018280546112cb90613de8565b80156113185780601f106112ed57610100808354040283529160200191611318565b820191906000526020600020905b8154815290600101906020018083116112fb57829003601f168201915b5050505050905090565b61132a611b4b565b73ffffffffffffffffffffffffffffffffffffffff168273ffffffffffffffffffffffffffffffffffffffff161415611398576040517f08c379a000000000000000000000000000000000000000000000000000000000815260040161138f90613903565b60405180910390fd5b80600560006113a5611b4b565b73ffffffffffffffffffffffffffffffffffffffff1673ffffffffffffffffffffffffffffffffffffffff16815260200190815260200160002060008473ffffffffffffffffffffffffffffffffffffffff1673ffffffffffffffffffffffffffffffffffffffff16815260200190815260200160002060006101000a81548160ff0219169083151502179055508173ffffffffffffffffffffffffffffffffffffffff16611452611b4b565b73ffffffffffffffffffffffffffffffffffffffff167f17307eab39ab6107e8899845ad3d59bd9653f200f220920489ca2b5937696c3183604051611497919061373f565b60405180910390a35050565b6114b46114ae611b4b565b83611d32565b6114f3576040517f08c379a00000000000000000000000000000000000000000000000000000000081526004016114ea90613ae3565b60405180910390fd5b6114ff84848484612132565b50505050565b61150d611b4b565b73ffffffffffffffffffffffffffffffffffffffff1661152b611266565b73ffffffffffffffffffffffffffffffffffffffff1614611581576040517f08c379a000000000000000000000000000000000000000000000000000000000815260040161157890613a63565b60405180910390fd5b8060108190555050565b60606115956115c5565b61159e8361218e565b6040516020016115af92919061363f565b6040516020818303038152906040529050919050565b60606040518060600160405280602d81526020016146cd602d9139905090565b6000811180156115f6575060148111155b611635576040517f08c379a000000000000000000000000000000000000000000000000000000000815260040161162c90613983565b60405180910390fd5b600f5461165282611644610d70565b611d1c90919063ffffffff16565b1115611693576040517f08c379a000000000000000000000000000000000000000000000000000000000815260040161168a90613943565b60405180910390fd5b6116a88160105461233b90919063ffffffff16565b3410156116ea576040517f08c379a00000000000000000000000000000000000000000000000000000000081526004016116e190613923565b60405180910390fd5b60005b818110156117315760006116ff610d70565b9050600f5461170c610d70565b101561171d5761171c3382612351565b5b50808061172990613e4b565b9150506116ed565b5050565b600f5481565b606060405180602001604052806000815250905090565b600080600e60009054906101000a900473ffffffffffffffffffffffffffffffffffffffff1690508273ffffffffffffffffffffffffffffffffffffffff168173ffffffffffffffffffffffffffffffffffffffff1663c4552791866040518263ffffffff1660e01b81526004016117ca919061369a565b60206040518083038186803b1580156117e257600080fd5b505afa1580156117f6573d6000803e3d6000fd5b505050506040513d601f19601f8201168201806040525081019061181a919061310a565b73ffffffffffffffffffffffffffffffffffffffff16141561184057600191505061184e565b61184a848461236f565b9150505b92915050565b61185c611b4b565b73ffffffffffffffffffffffffffffffffffffffff1661187a611266565b73ffffffffffffffffffffffffffffffffffffffff16146118d0576040517f08c379a00000000000000000000000000000000000000000000000000000000081526004016118c790613a63565b60405180910390fd5b600073ffffffffffffffffffffffffffffffffffffffff168173ffffffffffffffffffffffffffffffffffffffff161415611940576040517f08c379a000000000000000000000000000000000000000000000000000000000815260040161193790613883565b60405180910390fd5b6119498161206c565b50565b60003073ffffffffffffffffffffffffffffffffffffffff163373ffffffffffffffffffffffffffffffffffffffff1614156119f657600080368080601f016020809104026020016040519081016040528093929190818152602001838380828437600081840152601f19601f820116905080830192505050505050509050600080369050905073ffffffffffffffffffffffffffffffffffffffff8183015116925050506119fa565b3390505b90565b60007f80ac58cd000000000000000000000000000000000000000000000000000000007bffffffffffffffffffffffffffffffffffffffffffffffffffffffff1916827bffffffffffffffffffffffffffffffffffffffffffffffffffffffff19161480611ac857507f5b5e139f000000000000000000000000000000000000000000000000000000007bffffffffffffffffffffffffffffffffffffffffffffffffffffffff1916827bffffffffffffffffffffffffffffffffffffffffffffffffffffffff1916145b80611ad85750611ad782612403565b5b9050919050565b60008073ffffffffffffffffffffffffffffffffffffffff166002600084815260200190815260200160002060009054906101000a900473ffffffffffffffffffffffffffffffffffffffff1673ffffffffffffffffffffffffffffffffffffffff1614159050919050565b6000611b5561194c565b905090565b816004600083815260200190815260200160002060006101000a81548173ffffffffffffffffffffffffffffffffffffffff021916908373ffffffffffffffffffffffffffffffffffffffff160217905550808273ffffffffffffffffffffffffffffffffffffffff16611bcd83611069565b73ffffffffffffffffffffffffffffffffffffffff167f8c5be1e5ebec7d5bd14f71427d1e84f3dd0314c0f7b2291e5b200ac8c7c3b92560405160405180910390a45050565b60008073ffffffffffffffffffffffffffffffffffffffff168673ffffffffffffffffffffffffffffffffffffffff161415611c84576040517f08c379a0000000000000000000000000000000000000000000000000000000008152600401611c7b906139a3565b60405180910390fd5b6001611c97611c928761246d565b6124d5565b83868660405160008152602001604052604051611cb794939291906137ba565b6020604051602081039080840390855afa158015611cd9573d6000803e3d6000fd5b5050506020604051035173ffffffffffffffffffffffffffffffffffffffff168673ffffffffffffffffffffffffffffffffffffffff1614905095945050505050565b60008183611d2a9190613be2565b905092915050565b6000611d3d82611adf565b611d7c576040517f08c379a0000000000000000000000000000000000000000000000000000000008152600401611d7390613963565b60405180910390fd5b6000611d8783611069565b90508073ffffffffffffffffffffffffffffffffffffffff168473ffffffffffffffffffffffffffffffffffffffff161480611df657508373ffffffffffffffffffffffffffffffffffffffff16611dde84610922565b73ffffffffffffffffffffffffffffffffffffffff16145b80611e075750611e068185611752565b5b91505092915050565b8273ffffffffffffffffffffffffffffffffffffffff16611e3082611069565b73ffffffffffffffffffffffffffffffffffffffff1614611e86576040517f08c379a0000000000000000000000000000000000000000000000000000000008152600401611e7d90613a83565b60405180910390fd5b600073ffffffffffffffffffffffffffffffffffffffff168273ffffffffffffffffffffffffffffffffffffffff161415611ef6576040517f08c379a0000000000000000000000000000000000000000000000000000000008152600401611eed906138e3565b60405180910390fd5b611f0183838361250e565b611f0c600082611b5a565b6001600360008573ffffffffffffffffffffffffffffffffffffffff1673ffffffffffffffffffffffffffffffffffffffff1681526020019081526020016000206000828254611f5c9190613cc3565b925050819055506001600360008473ffffffffffffffffffffffffffffffffffffffff1673ffffffffffffffffffffffffffffffffffffffff1681526020019081526020016000206000828254611fb39190613be2565b92505081905550816002600083815260200190815260200160002060006101000a81548173ffffffffffffffffffffffffffffffffffffffff021916908373ffffffffffffffffffffffffffffffffffffffff160217905550808273ffffffffffffffffffffffffffffffffffffffff168473ffffffffffffffffffffffffffffffffffffffff167fddf252ad1be2c89b69c2b068fc378daa952ba7f163c4a11628f55a4df523b3ef60405160405180910390a4505050565b6000600d60009054906101000a900473ffffffffffffffffffffffffffffffffffffffff16905081600d60006101000a81548173ffffffffffffffffffffffffffffffffffffffff021916908373ffffffffffffffffffffffffffffffffffffffff1602179055508173ffffffffffffffffffffffffffffffffffffffff168173ffffffffffffffffffffffffffffffffffffffff167f8be0079c531659141344cd1fd0a4f28419497f9722a3daafe3b4186f6b6457e060405160405180910390a35050565b61213d848484611e10565b61214984848484612622565b612188576040517f08c379a000000000000000000000000000000000000000000000000000000000815260040161217f90613863565b60405180910390fd5b50505050565b606060008214156121d6576040518060400160405280600181526020017f30000000000000000000000000000000000000000000000000000000000000008152509050612336565b600082905060005b600082146122085780806121f190613e4b565b915050600a826122019190613c38565b91506121de565b60008167ffffffffffffffff81111561224a577f4e487b7100000000000000000000000000000000000000000000000000000000600052604160045260246000fd5b6040519080825280601f01601f19166020018201604052801561227c5781602001600182028036833780820191505090505b5090505b6000851461232f576001826122959190613cc3565b9150600a856122a49190613ec2565b60306122b09190613be2565b60f81b8183815181106122ec577f4e487b7100000000000000000000000000000000000000000000000000000000600052603260045260246000fd5b60200101907effffffffffffffffffffffffffffffffffffffffffffffffffffffffffffff1916908160001a905350600a856123289190613c38565b9450612280565b8093505050505b919050565b600081836123499190613c69565b905092915050565b61236b8282604051806020016040528060008152506127b9565b5050565b6000600560008473ffffffffffffffffffffffffffffffffffffffff1673ffffffffffffffffffffffffffffffffffffffff16815260200190815260200160002060008373ffffffffffffffffffffffffffffffffffffffff1673ffffffffffffffffffffffffffffffffffffffff16815260200190815260200160002060009054906101000a900460ff16905092915050565b60007f01ffc9a7000000000000000000000000000000000000000000000000000000007bffffffffffffffffffffffffffffffffffffffffffffffffffffffff1916827bffffffffffffffffffffffffffffffffffffffffffffffffffffffff1916149050919050565b60006040518060800160405280604381526020016146fa6043913980519060200120826000015183602001518460400151805190602001206040516020016124b89493929190613775565b604051602081830303815290604052805190602001209050919050565b60006124df610d82565b826040516020016124f1929190613663565b604051602081830303815290604052805190602001209050919050565b612519838383612814565b600073ffffffffffffffffffffffffffffffffffffffff168373ffffffffffffffffffffffffffffffffffffffff16141561255c5761255781612819565b61259b565b8173ffffffffffffffffffffffffffffffffffffffff168373ffffffffffffffffffffffffffffffffffffffff161461259a576125998382612862565b5b5b600073ffffffffffffffffffffffffffffffffffffffff168273ffffffffffffffffffffffffffffffffffffffff1614156125de576125d9816129cf565b61261d565b8273ffffffffffffffffffffffffffffffffffffffff168273ffffffffffffffffffffffffffffffffffffffff161461261c5761261b8282612b12565b5b5b505050565b60006126438473ffffffffffffffffffffffffffffffffffffffff16612b91565b156127ac578373ffffffffffffffffffffffffffffffffffffffff1663150b7a0261266c611b4b565b8786866040518563ffffffff1660e01b815260040161268e94939291906136f3565b602060405180830381600087803b1580156126a857600080fd5b505af19250505080156126d957506040513d601f19601f820116820180604052508101906126d691906130e1565b60015b61275c573d8060008114612709576040519150601f19603f3d011682016040523d82523d6000602084013e61270e565b606091505b50600081511415612754576040517f08c379a000000000000000000000000000000000000000000000000000000000815260040161274b90613863565b60405180910390fd5b805181602001fd5b63150b7a0260e01b7bffffffffffffffffffffffffffffffffffffffffffffffffffffffff1916817bffffffffffffffffffffffffffffffffffffffffffffffffffffffff1916149150506127b1565b600190505b949350505050565b6127c38383612ba4565b6127d06000848484612622565b61280f576040517f08c379a000000000000000000000000000000000000000000000000000000000815260040161280690613863565b60405180910390fd5b505050565b505050565b6008805490506009600083815260200190815260200160002081905550600881908060018154018082558091505060019003906000526020600020016000909190919091505550565b6000600161286f8461111b565b6128799190613cc3565b905060006007600084815260200190815260200160002054905081811461295e576000600660008673ffffffffffffffffffffffffffffffffffffffff1673ffffffffffffffffffffffffffffffffffffffff168152602001908152602001600020600084815260200190815260200160002054905080600660008773ffffffffffffffffffffffffffffffffffffffff1673ffffffffffffffffffffffffffffffffffffffff168152602001908152602001600020600084815260200190815260200160002081905550816007600083815260200190815260200160002081905550505b6007600084815260200190815260200160002060009055600660008573ffffffffffffffffffffffffffffffffffffffff1673ffffffffffffffffffffffffffffffffffffffff16815260200190815260200160002060008381526020019081526020016000206000905550505050565b600060016008805490506129e39190613cc3565b9050600060096000848152602001908152602001600020549050600060088381548110612a39577f4e487b7100000000000000000000000000000000000000000000000000000000600052603260045260246000fd5b906000526020600020015490508060088381548110612a81577f4e487b7100000000000000000000000000000000000000000000000000000000600052603260045260246000fd5b906000526020600020018190555081600960008381526020019081526020016000208190555060096000858152602001908152602001600020600090556008805480612af6577f4e487b7100000000000000000000000000000000000000000000000000000000600052603160045260246000fd5b6001900381819060005260206000200160009055905550505050565b6000612b1d8361111b565b905081600660008573ffffffffffffffffffffffffffffffffffffffff1673ffffffffffffffffffffffffffffffffffffffff168152602001908152602001600020600083815260200190815260200160002081905550806007600084815260200190815260200160002081905550505050565b600080823b905060008111915050919050565b600073ffffffffffffffffffffffffffffffffffffffff168273ffffffffffffffffffffffffffffffffffffffff161415612c14576040517f08c379a0000000000000000000000000000000000000000000000000000000008152600401612c0b90613a23565b60405180910390fd5b612c1d81611adf565b15612c5d576040517f08c379a0000000000000000000000000000000000000000000000000000000008152600401612c54906138c3565b60405180910390fd5b612c696000838361250e565b6001600360008473ffffffffffffffffffffffffffffffffffffffff1673ffffffffffffffffffffffffffffffffffffffff1681526020019081526020016000206000828254612cb99190613be2565b92505081905550816002600083815260200190815260200160002060006101000a81548173ffffffffffffffffffffffffffffffffffffffff021916908373ffffffffffffffffffffffffffffffffffffffff160217905550808273ffffffffffffffffffffffffffffffffffffffff16600073ffffffffffffffffffffffffffffffffffffffff167fddf252ad1be2c89b69c2b068fc378daa952ba7f163c4a11628f55a4df523b3ef60405160405180910390a45050565b6000612d85612d8084613b63565b613b3e565b905082815260208101848484011115612d9d57600080fd5b612da8848285613da6565b509392505050565b600081359050612dbf8161462b565b92915050565b600081359050612dd481614642565b92915050565b600081359050612de981614659565b92915050565b600081359050612dfe81614670565b92915050565b600081519050612e1381614670565b92915050565b600082601f830112612e2a57600080fd5b8135612e3a848260208601612d72565b91505092915050565b600081519050612e5281614687565b92915050565b600081359050612e678161469e565b92915050565b600081359050612e7c816146b5565b92915050565b600060208284031215612e9457600080fd5b6000612ea284828501612db0565b91505092915050565b60008060408385031215612ebe57600080fd5b6000612ecc85828601612db0565b9250506020612edd85828601612db0565b9150509250929050565b600080600060608486031215612efc57600080fd5b6000612f0a86828701612db0565b9350506020612f1b86828701612db0565b9250506040612f2c86828701612e58565b9150509250925092565b60008060008060808587031215612f4c57600080fd5b6000612f5a87828801612db0565b9450506020612f6b87828801612db0565b9350506040612f7c87828801612e58565b925050606085013567ffffffffffffffff811115612f9957600080fd5b612fa587828801612e19565b91505092959194509250565b60008060408385031215612fc457600080fd5b6000612fd285828601612db0565b9250506020612fe385828601612dc5565b9150509250929050565b600080600080600060a0868803121561300557600080fd5b600061301388828901612db0565b955050602086013567ffffffffffffffff81111561303057600080fd5b61303c88828901612e19565b945050604061304d88828901612dda565b935050606061305e88828901612dda565b925050608061306f88828901612e6d565b9150509295509295909350565b6000806040838503121561308f57600080fd5b600061309d85828601612db0565b92505060206130ae85828601612e58565b9150509250929050565b6000602082840312156130ca57600080fd5b60006130d884828501612def565b91505092915050565b6000602082840312156130f357600080fd5b600061310184828501612e04565b91505092915050565b60006020828403121561311c57600080fd5b600061312a84828501612e43565b91505092915050565b60006020828403121561314557600080fd5b600061315384828501612e58565b91505092915050565b61316581613d09565b82525050565b61317481613cf7565b82525050565b61318b61318682613cf7565b613e94565b82525050565b61319a81613d1b565b82525050565b6131a981613d27565b82525050565b6131c06131bb82613d27565b613ea6565b82525050565b60006131d182613b94565b6131db8185613baa565b93506131eb818560208601613db5565b6131f481613faf565b840191505092915050565b600061320a82613b94565b6132148185613bbb565b9350613224818560208601613db5565b80840191505092915050565b600061323b82613b9f565b6132458185613bc6565b9350613255818560208601613db5565b61325e81613faf565b840191505092915050565b600061327482613b9f565b61327e8185613bd7565b935061328e818560208601613db5565b80840191505092915050565b60006132a7602b83613bc6565b91506132b282613fcd565b604082019050919050565b60006132ca603283613bc6565b91506132d58261401c565b604082019050919050565b60006132ed602683613bc6565b91506132f88261406b565b604082019050919050565b6000613310601c83613bc6565b915061331b826140ba565b602082019050919050565b6000613333601c83613bc6565b915061333e826140e3565b602082019050919050565b6000613356600283613bd7565b91506133618261410c565b600282019050919050565b6000613379602483613bc6565b915061338482614135565b604082019050919050565b600061339c601983613bc6565b91506133a782614184565b602082019050919050565b60006133bf601f83613bc6565b91506133ca826141ad565b602082019050919050565b60006133e2602983613bc6565b91506133ed826141d6565b604082019050919050565b6000613405602c83613bc6565b915061341082614225565b604082019050919050565b6000613428602183613bc6565b915061343382614274565b604082019050919050565b600061344b602583613bc6565b9150613456826142c3565b604082019050919050565b600061346e603883613bc6565b915061347982614312565b604082019050919050565b6000613491602a83613bc6565b915061349c82614361565b604082019050919050565b60006134b4602983613bc6565b91506134bf826143b0565b604082019050919050565b60006134d7602083613bc6565b91506134e2826143ff565b602082019050919050565b60006134fa602c83613bc6565b915061350582614428565b604082019050919050565b600061351d602083613bc6565b915061352882614477565b602082019050919050565b6000613540602983613bc6565b915061354b826144a0565b604082019050919050565b6000613563602183613bc6565b915061356e826144ef565b604082019050919050565b6000613586602183613bc6565b91506135918261453e565b604082019050919050565b60006135a9603183613bc6565b91506135b48261458d565b604082019050919050565b60006135cc602c83613bc6565b91506135d7826145dc565b604082019050919050565b6135eb81613d8f565b82525050565b6135fa81613d99565b82525050565b600061360c82846131ff565b915081905092915050565b600061362382856131ff565b915061362f828461317a565b6014820191508190509392505050565b600061364b8285613269565b91506136578284613269565b91508190509392505050565b600061366e82613349565b915061367a82856131af565b60208201915061368a82846131af565b6020820191508190509392505050565b60006020820190506136af600083018461316b565b92915050565b60006060820190506136ca600083018661316b565b6136d7602083018561315c565b81810360408301526136e981846131c6565b9050949350505050565b6000608082019050613708600083018761316b565b613715602083018661316b565b61372260408301856135e2565b818103606083015261373481846131c6565b905095945050505050565b60006020820190506137546000830184613191565b92915050565b600060208201905061376f60008301846131a0565b92915050565b600060808201905061378a60008301876131a0565b61379760208301866135e2565b6137a4604083018561316b565b6137b160608301846131a0565b95945050505050565b60006080820190506137cf60008301876131a0565b6137dc60208301866135f1565b6137e960408301856131a0565b6137f660608301846131a0565b95945050505050565b6000602082019050818103600083015261381981846131c6565b905092915050565b6000602082019050818103600083015261383b8184613230565b905092915050565b6000602082019050818103600083015261385c8161329a565b9050919050565b6000602082019050818103600083015261387c816132bd565b9050919050565b6000602082019050818103600083015261389c816132e0565b9050919050565b600060208201905081810360008301526138bc81613303565b9050919050565b600060208201905081810360008301526138dc81613326565b9050919050565b600060208201905081810360008301526138fc8161336c565b9050919050565b6000602082019050818103600083015261391c8161338f565b9050919050565b6000602082019050818103600083015261393c816133b2565b9050919050565b6000602082019050818103600083015261395c816133d5565b9050919050565b6000602082019050818103600083015261397c816133f8565b9050919050565b6000602082019050818103600083015261399c8161341b565b9050919050565b600060208201905081810360008301526139bc8161343e565b9050919050565b600060208201905081810360008301526139dc81613461565b9050919050565b600060208201905081810360008301526139fc81613484565b9050919050565b60006020820190508181036000830152613a1c816134a7565b9050919050565b60006020820190508181036000830152613a3c816134ca565b9050919050565b60006020820190508181036000830152613a5c816134ed565b9050919050565b60006020820190508181036000830152613a7c81613510565b9050919050565b60006020820190508181036000830152613a9c81613533565b9050919050565b60006020820190508181036000830152613abc81613556565b9050919050565b60006020820190508181036000830152613adc81613579565b9050919050565b60006020820190508181036000830152613afc8161359c565b9050919050565b60006020820190508181036000830152613b1c816135bf565b9050919050565b6000602082019050613b3860008301846135e2565b92915050565b6000613b48613b59565b9050613b548282613e1a565b919050565b6000604051905090565b600067ffffffffffffffff821115613b7e57613b7d613f80565b5b613b8782613faf565b9050602081019050919050565b600081519050919050565b600081519050919050565b600082825260208201905092915050565b600081905092915050565b600082825260208201905092915050565b600081905092915050565b6000613bed82613d8f565b9150613bf883613d8f565b9250827fffffffffffffffffffffffffffffffffffffffffffffffffffffffffffffffff03821115613c2d57613c2c613ef3565b5b828201905092915050565b6000613c4382613d8f565b9150613c4e83613d8f565b925082613c5e57613c5d613f22565b5b828204905092915050565b6000613c7482613d8f565b9150613c7f83613d8f565b9250817fffffffffffffffffffffffffffffffffffffffffffffffffffffffffffffffff0483118215151615613cb857613cb7613ef3565b5b828202905092915050565b6000613cce82613d8f565b9150613cd983613d8f565b925082821015613cec57613ceb613ef3565b5b828203905092915050565b6000613d0282613d6f565b9050919050565b6000613d1482613d6f565b9050919050565b60008115159050919050565b6000819050919050565b60007fffffffff0000000000000000000000000000000000000000000000000000000082169050919050565b6000613d6882613cf7565b9050919050565b600073ffffffffffffffffffffffffffffffffffffffff82169050919050565b6000819050919050565b600060ff82169050919050565b82818337600083830152505050565b60005b83811015613dd3578082015181840152602081019050613db8565b83811115613de2576000848401525b50505050565b60006002820490506001821680613e0057607f821691505b60208210811415613e1457613e13613f51565b5b50919050565b613e2382613faf565b810181811067ffffffffffffffff82111715613e4257613e41613f80565b5b80604052505050565b6000613e5682613d8f565b91507fffffffffffffffffffffffffffffffffffffffffffffffffffffffffffffffff821415613e8957613e88613ef3565b5b600182019050919050565b6000613e9f82613eb0565b9050919050565b6000819050919050565b6000613ebb82613fc0565b9050919050565b6000613ecd82613d8f565b9150613ed883613d8f565b925082613ee857613ee7613f22565b5b828206905092915050565b7f4e487b7100000000000000000000000000000000000000000000000000000000600052601160045260246000fd5b7f4e487b7100000000000000000000000000000000000000000000000000000000600052601260045260246000fd5b7f4e487b7100000000000000000000000000000000000000000000000000000000600052602260045260246000fd5b7f4e487b7100000000000000000000000000000000000000000000000000000000600052604160045260246000fd5b6000601f19601f8301169050919050565b60008160601b9050919050565b7f455243373231456e756d657261626c653a206f776e657220696e646578206f7560008201527f74206f6620626f756e6473000000000000000000000000000000000000000000602082015250565b7f4552433732313a207472616e7366657220746f206e6f6e20455243373231526560008201527f63656976657220696d706c656d656e7465720000000000000000000000000000602082015250565b7f4f776e61626c653a206e6577206f776e657220697320746865207a65726f206160008201527f6464726573730000000000000000000000000000000000000000000000000000602082015250565b7f46756e6374696f6e2063616c6c206e6f74207375636365737366756c00000000600082015250565b7f4552433732313a20746f6b656e20616c7265616479206d696e74656400000000600082015250565b7f1901000000000000000000000000000000000000000000000000000000000000600082015250565b7f4552433732313a207472616e7366657220746f20746865207a65726f2061646460008201527f7265737300000000000000000000000000000000000000000000000000000000602082015250565b7f4552433732313a20617070726f766520746f2063616c6c657200000000000000600082015250565b7f45746865722076616c75652073656e74206973206e6f7420636f727265637400600082015250565b7f507572636861736520776f756c6420657863656564206d617820737570706c7960008201527f206f66204c696f6e730000000000000000000000000000000000000000000000602082015250565b7f4552433732313a206f70657261746f7220717565727920666f72206e6f6e657860008201527f697374656e7420746f6b656e0000000000000000000000000000000000000000602082015250565b7f43616e206f6e6c79206d696e7420323020746f6b656e7320617420612074696d60008201527f6500000000000000000000000000000000000000000000000000000000000000602082015250565b7f4e61746976654d6574615472616e73616374696f6e3a20494e56414c49445f5360008201527f49474e4552000000000000000000000000000000000000000000000000000000602082015250565b7f4552433732313a20617070726f76652063616c6c6572206973206e6f74206f7760008201527f6e6572206e6f7220617070726f76656420666f7220616c6c0000000000000000602082015250565b7f4552433732313a2062616c616e636520717565727920666f7220746865207a6560008201527f726f206164647265737300000000000000000000000000000000000000000000602082015250565b7f4552433732313a206f776e657220717565727920666f72206e6f6e657869737460008201527f656e7420746f6b656e0000000000000000000000000000000000000000000000602082015250565b7f4552433732313a206d696e7420746f20746865207a65726f2061646472657373600082015250565b7f4552433732313a20617070726f76656420717565727920666f72206e6f6e657860008201527f697374656e7420746f6b656e0000000000000000000000000000000000000000602082015250565b7f4f776e61626c653a2063616c6c6572206973206e6f7420746865206f776e6572600082015250565b7f4552433732313a207472616e73666572206f6620746f6b656e2074686174206960008201527f73206e6f74206f776e0000000000000000000000000000000000000000000000602082015250565b7f5369676e657220616e64207369676e617475726520646f206e6f74206d61746360008201527f6800000000000000000000000000000000000000000000000000000000000000602082015250565b7f4552433732313a20617070726f76616c20746f2063757272656e74206f776e6560008201527f7200000000000000000000000000000000000000000000000000000000000000602082015250565b7f4552433732313a207472616e736665722063616c6c6572206973206e6f74206f60008201527f776e6572206e6f7220617070726f766564000000000000000000000000000000602082015250565b7f455243373231456e756d657261626c653a20676c6f62616c20696e646578206f60008201527f7574206f6620626f756e64730000000000000000000000000000000000000000602082015250565b61463481613cf7565b811461463f57600080fd5b50565b61464b81613d1b565b811461465657600080fd5b50565b61466281613d27565b811461466d57600080fd5b50565b61467981613d31565b811461468457600080fd5b50565b61469081613d5d565b811461469b57600080fd5b50565b6146a781613d8f565b81146146b257600080fd5b50565b6146be81613d99565b81146146c957600080fd5b5056fe68747470733a2f2f746573742d726f626f7476312e6865726f6b756170702e636f6d2f6170692f746f6b656e2f4d6574615472616e73616374696f6e2875696e74323536206e6f6e63652c616464726573732066726f6d2c62797465732066756e6374696f6e5369676e617475726529a264697066735822122089ba0140b28849370673caac1ec9ff31870aed51f68f2af964ba75c6062809ba64736f6c63430008040033454950373132446f6d61696e28737472696e67206e616d652c737472696e672076657273696f6e2c6164647265737320766572696679696e67436f6e74726163742c627974657333322073616c7429",
  "linkReferences": {},
  "deployedLinkReferences": {}
}